:020000040800F2
:1000000000500020192E00088D0200088F02000801
:100010009102000893020008950200080000000009
:10002000000000000000000000000000970200082F
:1000300099020008000000009B0200089D020008D1
:10004000612E0008612E0008612E0008612E000854
:10005000612E0008612E0008612E0008612E000844
:10006000612E0008612E0008612E0008612E000834
:10007000612E0008612E0008612E0008612E000824
:10008000612E0008612E0008612E0008612E000814
:10009000A5020008612E0008612E0008612E0008EC
:1000A000612E0008612E0008612E0008612E0008F4
:1000B000612E0008612E0008612E0008612E0008E4
:1000C000612E0008612E0008612E0008612E0008D4
:1000D000612E0008612E0008612E0008612E0008C4
:1000E000612E0008612E0008612E0008000000004B
:1000F0000000000000000000000000000000000000
:0C01000000000000000000005FF808F1A3
:10010C000348044B834202D0034B03B1184770479A
:10011C006001002060010020000000000548064935
:10012C00091A891001EBD171491002D0034B03B1AC
:10013C00184770476001002060010020000000009B
:10014C0010B5064C237843B9FFF7DAFF044B13B113
:10015C000448AFF300800123237010BD6001002020
:10016C0000000000AC2E000808B5054B1BB105497A
:10017C000548AFF30080BDE80840FFF7CFBF00BFD4
:10018C000000000064010020AC2E000830B595B0D2
:10019C0000240C940D940F941094059406940794D9
:1001AC0008940994019402940394049401220A92F1
:1001BC004FF480330B930E920225119512934FF44A
:1001CC00E01313930AA800F0F1F80F23059306959A
:1001DC0007944FF4806308930994294605A800F00E
:1001EC000DFB10230193049401A800F0D5FB15B06E
:1001FC0030BD08B500F0A0F8FFF7C8FF00F004F818
:10020C0000F0D2FDFEE7704730B589B000240494AD
:10021C00059406940794184B9A6942F010029A615F
:10022C009A6902F010020192019A9A6942F0200236
:10023C009A619A6902F020020292029A9A6942F03B
:10024C0004029A619B6903F004030393039B0B4D17
:10025C0022464FF40051284600F012FD4FF4005393
:10026C0004930123059306940223079304A92846BB
:10027C0000F01CFC09B030BD001002400010014021
:10028C007047FEE7FEE7FEE7FEE7704770477047F2
:10029C0008B500F063F808BD08B5024801F0D0FAC3
:1002AC0008BD00BFC805002082B00E4B9A6942F011
:1002BC0001029A619A6902F001020092009ADA69CD
:1002CC0042F08052DA61DB6903F080530193019BA9
:1002DC00054A536823F0E06343F00073536002B0A7
:1002EC00704700BF001002400000014010B50446EA
:1002FC000E4B18784FF47A73B3FBF0F30C4A10687A
:10030C00B0FBF3F000F014FD68B90F2C01D90120FB
:10031C000AE0002221464FF0FF3000F0C9FC054BEB
:10032C001C60002000E0012010BD00BF0000002078
:10033C00080000200400002008B5074A136843F0A9
:10034C0010031360032000F0A1FC0020FFF7CEFF88
:10035C00FFF7AAFF002008BD00200240034A1168E5
:10036C00034B1B780B441360704700BFA0030020A5
:10037C0000000020014B1868704700BFA00300204C
:10038C0082B0084B1B68084AA2FB03235B0A00FBE4
:10039C0003F0019000BF019B5A1E0192002BF9D172
:1003AC0002B0704708000020D34D621070B582B0C7
:1003BC000446036813F0010F2CD0AB4B5B6803F0C1
:1003CC000C03042B1DD0A84B5B6803F00C03082B0B
:1003DC0012D06368B3F5803F41D0002B55D103F1A7
:1003EC00804303F504331A6822F480321A601A68C9
:1003FC0022F480221A6037E09B4B5B6813F4803F39
:10040C00E7D0994B1B6813F4003F03D06368002BB3
:10041C0000F0AE81236813F0020F75D0924B5B682D
:10042C0013F00C0F5FD0904B5B6803F00C03082BA0
:10043C0054D02369002B00F089808C4B01221A6068
:10044C00FFF798FF0546884B1B6813F0020F74D119
:10045C00FFF790FF401B0228F5D903208DE1824A5B
:10046C00136843F480331360636843B3FFF782FF70
:10047C0005467D4B1B6813F4003FCBD1FFF77AFF89
:10048C00401B6428F5D9032077E1B3F5A02F09D0E0
:10049C00754B1A6822F480321A601A6822F4802292
:1004AC001A60E1E703F18043A3F53C331A6842F488
:1004BC0080221A601A6842F480321A60D4E7FFF77F
:1004CC0059FF0546684B1B6813F4003FA2D0FFF799
:1004DC0051FF401B6428F5D903204EE1624B5B6849
:1004EC0013F4803FA5D1604B1B6813F0020F03D0AF
:1004FC002369012B40F03E815B4A136823F0F8031B
:10050C00616943EAC1031360236813F0080F32D00A
:10051C00A369002B5BD0564B01221A60FFF72AFF10
:10052C000546514B5B6A13F0020F21D1FFF722FFF6
:10053C00401B0228F5D903201FE14B4A136823F016
:10054C00F803616943EAC1031360DDE7474B0022FE
:10055C001A60FFF70FFF0546434B1B6813F0020FA1
:10056C00D2D0FFF707FF401B0228F5D9032004E186
:10057C000120FFF705FF236813F0040F00F09880AB
:10058C00394BDB6913F0805F33D1374BDA6942F0BA
:10059C008052DA61DB6903F080530193019B0125E2
:1005AC00344B1B6813F4807F25D0E368012B36D0C5
:1005BC00002B4CD103F1804303F504331A6A22F06B
:1005CC0001021A621A6A22F004021A622CE0284B09
:1005DC0000221A60FFF7CEFE0546234B5B6A13F030
:1005EC00020FC8D0FFF7C6FE401B0228F5D9032026
:1005FC00C3E00025D4E71F4A136843F480731360EB
:10060C00FFF7B8FE06461B4B1B6813F4807FCCD15A
:10061C00FFF7B0FE801B6428F5D90320ADE0124A29
:10062C00136A43F001031362E3687BB3FFF7A2FE86
:10063C0006460D4B1B6A13F0020F38D1FFF79AFEDA
:10064C00801B41F288339842F3D9032095E0052BA7
:10065C0012D0054B1A6A22F001021A621A6A22F0B1
:10066C0004021A62E0E700BF0010024000004242A0
:10067C008004424200700040424B1A6A42F004026D
:10068C001A621A6A42F001021A62CDE7FFF772FE93
:10069C0006463C4B1B6A13F0020F08D0FFF76AFEAC
:1006AC00801B41F288339842F3D9032065E0E5B909
:1006BC00E369002B60D0334A526802F00C02082A1E
:1006CC005DD0022B17D0304B00221A60FFF752FE80
:1006DC0004462C4B1B6813F0007F47D0FFF74AFEF3
:1006EC00001B0228F5D9032047E0264AD36923F0E2
:1006FC008053D361DCE7244B00221A60FFF73AFEEB
:10070C000546204B1B6813F0007F06D0FFF732FE26
:10071C00401B0228F5D903202FE0236AB3F5803F54
:10072C001AD018494B6823F47413226A606A024386
:10073C0013434B60144B01221A60FFF71BFE044657
:10074C00104B1B6813F0007F0ED1FFF713FE001B3C
:10075C000228F5D9032010E00A4A536823F4003329
:10076C00A1680B435360DCE7002006E0002004E0A6
:10077C00012002E0012000E0002002B070BD012049
:10078C00FBE700BF001002406000424210B487B08B
:10079C00164C94E80F000DF1180C0CE90F00238A8D
:1007AC00ADF80430124B5B6803F00C02082A03D03E
:1007BC00104807B010BC7047C3F38342624412F870
:1007CC00102C13F4803F0CD0094B5B68C3F34043EF
:1007DC00634413F8143C074800FB02F0B0FBF3F041
:1007EC00E7E7054800FB02F0E3E700BFC42E000872
:1007FC000010024000127A0000093D00624B1B6899
:10080C0003F007038B420BD25F4A136823F00703F4
:10081C000B431360136803F007038B4240F0AE8068
:10082C0070B5036813F0020F17D013F0040F04D047
:10083C00564A536843F4E0635360036813F0080F9F
:10084C0004D0524A536843F4605353604F4A536880
:10085C0023F0F0038468234353600D460446036879
:10086C0013F0010F52D04368012B23D0022B28D058
:10087C00464A126812F0020F00F0828043494A681F
:10088C0022F0030213434B60FFF774FD06466368C6
:10089C00012B1DD0022B2AD03C4B5B6813F00C0FA4
:1008AC0034D0FFF767FD801B41F288339842F3D9AF
:1008BC00032062E0354A126812F4003FDED10120B9
:1008CC005BE0324A126812F0007FD7D1012054E06D
:1008DC002E4B5B6803F00C03042B17D0FFF74AFD7B
:1008EC00801B41F288339842F2D9032045E0274B14
:1008FC005B6803F00C03082B08D0FFF73BFD801B53
:10090C0041F288339842F2D9032036E01E4B1B6823
:10091C0003F00703AB420AD91B4A136823F0070301
:10092C002B431360136803F00703AB422AD12368EF
:10093C0013F0040F06D0154A536823F4E063E16802
:10094C000B435360236813F0080F07D00F4A53680A
:10095C0023F46053216943EAC1035360FFF716FF88
:10096C000A4B5B68C3F30313094AD35CD840094BA9
:10097C0018600020FFF7BAFC002070BD0120704702
:10098C000120FAE70120F8E70020024000100240A5
:10099C00D82E00080800002070B582B00446036809
:1009AC0013F0010F34D03E4BDB6913F0805F48D15C
:1009BC003B4BDA6942F08052DA61DB6903F0805319
:1009CC000193019B0125374B1B6813F4807F3AD0B0
:1009DC00334B1B6A13F4407311D0626802F44072FB
:1009EC009A420CD02E4A136A23F440702E490126E9
:1009FC000E6000260E60106213F0010F37D1284AEA
:100A0C00136A23F4407361680B431362002D3FD1CA
:100A1C00236813F0020F06D0214A536823F4404395
:100A2C00A1680B435360236813F0100F35D01C4A98
:100A3C00536823F48003E1680B435360002002B039
:100A4C0070BD0025BFE7174A136843F48073136029
:100A5C00FFF790FC0646134B1B6813F4807FB7D14D
:100A6C00FFF788FC801B6428F5D90320E7E7FFF724
:100A7C0081FC06460A4B1B6A13F0020FBFD1FFF72D
:100A8C0079FC801B41F288339842F3D90320D6E7D6
:100A9C00D36923F08053D361BAE70020CFE700BFBE
:100AAC00001002400070004040044242F0B482B09A
:100ABC0000263546A0E0002B58D0012B10D1CE6873
:100ACC000EE0694FBB4251D048D9684FBB424DD064
:100ADC0007F58037BB4249D0A7F58017BB4245D0FC
:100AEC00FF2A57D88446FF2A57D8AC00DCF80030D0
:100AFC000F27A74023EA070306FA04F42343CCF894
:100B0C0000304B6813F0805F75D0594B9C6944F0F2
:100B1C0001049C619B6903F001030193019BAC08E8
:100B2C00A71C544B53F8273005F00307BF004FF0B8
:100B3C000F0C0CFA07FC23EA0C0C4F4B984232D0EA
:100B4C0003F58063984270D003F5806398426ED0B1
:100B5C0003F58063984224D0042325E0A7F5801781
:100B6C00BB4203D007F58037BB42B9D18B687BB150
:100B7C00012B08D044610826B2E7CE680836AFE7EF
:100B8C00CE680C36ACE704610826A9E70026A7E777
:100B9C000426A5E700F1040CA5E7A5F10804A400C0
:100BAC00A4E7032300E00023BB4043EA0C03023418
:100BBC00304F47F824304B6813F4803F39D02F4C1A
:100BCC002368134323604B6813F4003F37D02B4C3E
:100BDC006368134363604B6813F4801F35D0274C54
:100BEC00A3681343A3604B6813F4001F33D0234C4A
:100BFC00E3681A43E26001350F2D32D80124AC4072
:100C0C000A6822409442F6D14B68122BB8D03FF6BA
:100C1C0058AF022BB1D07FF64EAF032BB6D0112BB1
:100C2C007FF45EAFCE6804365AE70123BCE702239B
:100C3C00BAE7124C236823EA02032360C3E70F4C84
:100C4C00636823EA02036360C5E70C4CA36823EADC
:100C5C000203A360C7E7094CE36823EA0202E260DF
:100C6C00C9E702B0F0BC7047000021100000311041
:100C7C000010024000000140000801400004014047
:100C8C000AB101617047090401617047074AD368D2
:100C9C0023F4E0631B041B0C000200F4E060184317
:100CAC0040F0BF6040F40030D060704700ED00E0D1
:100CBC0030B4174BDB68C3F30223C3F10704042CD5
:100CCC0028BF04241D1D062D01D9033B00E0002381
:100CDC004FF0FF3505FA04F421EA0401994005FAB6
:100CEC0003F322EA03031943002809DB0901C9B203
:100CFC0000F1604000F5614080F8001330BC704793
:100D0C0000F00F000901C9B2024B1954F6E700BFFD
:100D1C0000ED00E014ED00E000F01F02400901239B
:100D2C009340024A42F82030704700BF00E100E0D7
:100D3C000138B0F1807F0AD2064B5860064AF02188
:100D4C0082F823100020986007221A607047012057
:100D5C00704700BF10E000E000ED00E00F4B1A6898
:100D6C0042F001021A6059680D4A0A405A601A682A
:100D7C0022F0847222F480321A601A6822F48022E3
:100D8C001A605A6822F4FE025A604FF41F029A60ED
:100D9C00044B4FF000629A60704700BF0010024095
:100DAC000000FFF800ED00E010B5094C00220949E5
:100DBC00204601F018FB0849204601F02BFB07499F
:100DCC00204601F0F5FF204601F02BFB10BD00BFC3
:100DDC00A40300200C000020500000204000002044
:100DEC0002680E4B9A4200D0704700B583B003F5F1
:100DFC00DA33DA6942F40002DA61DB6903F40003E6
:100E0C000193019B002211461420FFF751FF14207F
:100E1C00FFF782FF03B05DF804FB00BF005C0040ED
:100E2C0008B500F22C41D0F85C0401F013FB08BDAE
:100E3C0008B500EB4113D3F83C22D0F85C0401F068
:100E4C0037FB08BD08B500EB4113DA6BD0F85C0436
:100E5C0001F064FB08BD08B5D0F85C0401F0E8FBB8
:100E6C0008BD10B504460121D0F85C0401F0CEFB9E
:100E7C00D4F85C0401F0ABFB10BD000010B50446C7
:100E8C00D0F85C0401F0C5FBA36923B1024A1369D5
:100E9C0043F00603136110BD00ED00E008B5D0F877
:100EAC005C0401F0BFFB08BD10B504461E48C0F839
:100EBC005C44C4F820021D4B0360082343600223EA
:100ECC0083600323C36000238361C361036200F06A
:100EDC0061F930BB182300221146D4F8200200F02F
:100EEC00B4FD582300228021D4F8200200F0ADFD7F
:100EFC00C02300228121D4F8200200F0A6FD4FF47B
:100F0C00887300220121D4F8200200F09EFD4FF4DA
:100F1C00807300228221D4F8200200F096FD00207C
:100F2C0010BDFFF770F9D5E7C8050020005C004044
:100F3C0008B5D0F8200200F098F9022807D8DFE8AD
:100F4C0000F002060400002002E0012000E0022074
:100F5C0008BD10B51C4613462246D0F8200200F0FE
:100F6C00AFF9022807D8DFE800F0020604000020E1
:100F7C0002E0012000E0022010BD08B5D0F82002EC
:100F8C0000F0C7F9022807D8DFE800F002060400D9
:100F9C00002002E0012000E0022008BD08B5D0F8D6
:100FAC00200200F0FDFC022807D8DFE800F0020662
:100FBC000400002002E0012000E0022008BD08B57A
:100FCC00D0F8200200F01AFD022807D8DFE800F064
:100FDC0002060400002002E0012000E0022008BD0F
:100FEC00D0F8203211F0800F06D101F07F0103EB15
:100FFC00411191F82A02704701F07F0103EB411176
:10100C0091F82A00704708B5D0F8200200F044F996
:10101C00022807D8DFE800F002060400002002E0F6
:10102C00012000E0022008BD08B5D0F8200200F035
:10103C00BDF9022807D8DFE800F002060400002002
:10104C0002E0012000E0022008BD08B5D0F8200223
:10105C0000F086F9022807D8DFE800F00206040049
:10106C00002002E0012000E0022008BD08B5D0F805
:10107C00200200F094F908BD004870477C01002064
:10108C007047704712230B800048704728000020DF
:10109C0004230B80004870473C00002008B50A462A
:1010AC0028B90549054801F036FD034808BD024939
:1010BC00024801F030FDF8E7280A0020182F00083C
:1010CC0010B5044C0A462146034801F024FD204685
:1010DC0010BD00BF280A0020042F000808B50A46DE
:1010EC0028B90549054801F016FD034808BD024919
:1010FC00024801F010FDF8E7280A0020302F000804
:10110C0008B50A4628B90549054801F004FD03480D
:10111C0008BD0249024801F0FEFCF8E7280A00204D
:10112C00E82E000808B50A4628B90549054801F01B
:10113C00F2FC034808BD0249024801F0ECFCF8E758
:10114C00280A0020F42E0008002070470020704769
:10115C0010B5054C0146204601F039FE204601F041
:10116C003CFE002010BD00BFA403002010B5064CAF
:10117C0000220649204601F022FE0549204601F0D6
:10118C0026FE002010BD00BFA4030020101000207C
:10119C00280C0020002866D0F0B587B0044690F8E3
:1011AC0029345BB3032384F82934206800F074FCE1
:1011BC00254655F8107B6E460FCD0FC62B68336055
:1011CC00231D0ECB384600F058FC0021206800F09F
:1011DC006DFC00230E2B16D804EB4312012182F870
:1011EC00291082F828309386002182F82B10916305
:1011FC00D1639A1C5201A1500133EBE780F82834DB
:10120C00FFF7EEFDCEE700230E2B13D804EB4312B1
:10121C00002182F8291282F82832938682F82B1248
:10122C00C2F83812C2F83C1203F112025201A1505A
:10123C000133E9E7254655F8107B6E460FCD0FC6F6
:10124C002B683360231D0ECB384600F031FC002593
:10125C0084F82450012384F82934206800F03CFFE2
:10126C00284607B0F0BD0120704790F82834012BB8
:10127C0010D010B50446012180F82814FFF701FFA7
:10128C00206800F027FF206800F0FEFB002084F8A7
:10129C00280410BD0220704790F82834012B0DD083
:1012AC0010B50446012380F8283480F82410006817
:1012BC0000F00AFF002084F8280410BD02207047BB
:1012CC0038B54DB2002D1CDB01F07F04640104F530
:1012DC000A74044401F07F012170ED0F65702261E6
:1012EC00E37090F82834012B11D00546012380F8C7
:1012FC0028342146006800F0F1FB002085F8280412
:10130C0038BD01F07F04640128340444E2E7022074
:10131C00F6E74AB2002A1BDB01F07F035B0103F501
:10132C000A73034401F07F011970D20F5A7090F8C0
:10133C002824012A12D010B50446012280F8282452
:10134C001946006800F05EFD002084F8280410BDEA
:10135C0001F07F035B0128330344E3E7022070476D
:10136C0070B501F07F056C0104F50A710144044469
:10137C00C4F83C2205F11202520186188350002356
:10138C00736084F8293284F8285225B9006800F07B
:10139C00BFFE002070BD006800F0BAFEF9E701F056
:1013AC000F01123100EB41118888704770B501F0C4
:1013BC007F056C0104F1280101440444E263AA1C7A
:1013CC0052018618835000237360012384F829305E
:1013DC0084F8285025B9006800F09AFE002070BDF2
:1013EC00006800F095FEF9E770B582B00446002362
:1013FC00ADF80630ADF804308DE103889BB223F4D0
:10140C00E14323F070039BB203802268B2F85030A2
:10141C0094F8281003EBC103023302EB4303D3F817
:10142C000034C3F309036364E26B1344E3630021E8
:10143C002046FFF707FD94F82430002B00F06B8159
:10144C00236C002B40F0678194F82430226843F021
:10145C008003A2F84C30002384F824305BE1B0F810
:10146C00503094F8282203EBC203063300EB4303FD
:10147C00D3F80034C3F30903C4F84432B4F82C2273
:10148C0004F22C4100F0A1FF2268138823F07003B2
:10149C001B051B0D13802046FFF7C2FC3BE1B4F883
:1014AC002C22D4F83C1200F090FFD4F84422D4F84B
:1014BC003C321344C4F83C326BE1C1F34F0311F0DE
:1014CC00010F01D001339BB29B029BB2C2F80034D6
:1014DC007CE130F825309BB2ADF80430BDF8043017
:1014EC0013F4004F35D1BDF8043013F0800F00F029
:1014FC001281226832F825309BB223F4E14323F0A9
:10150C0070039BB222F8253004EB451393F832306C
:10151C00002B40F0B2802068B0F8503004EB45123C
:10152C0092F8282003EBC203023300EB4303D3F8F9
:10153C000034C3F30903AA1C04EB42125360002BC2
:10154C0000F0C98004EB45118A8DC96B00F0CBFD0E
:10155C00C1E030F8253023F070031B051B0D20F87B
:10156C00253004EB451393F83232D3B92068B0F828
:10157C00503004EB451292F8282203EBC2030633D9
:10158C0000EB4303B3F80064C6F3090686B304EB1F
:10159C0045113346B1F82C22D1F83C1200F015FF5E
:1015AC0026E0206804EB451393F8282230F822300B
:1015BC0013F4804F42D0B0F8503003EBC203023327
:1015CC0000EB4303B3F80064C6F3090666BB22685C
:1015DC0004EB451393F8281232F8213023F0F00372
:1015EC001B051B0D43F4004343F0C00322F82130CC
:1015FC0005F112035B01E1184A6832444A6004EBBE
:10160C004511D1F83C223244C1F83C22E3581BB1BD
:10161C00D1F838128E4228D204EB451393F82812D5
:10162C002046FFF705FC5EE704EB45113346B1F8A5
:10163C002E22D1F83C1200F0C8FEC8E7B0F85030AA
:10164C0003EBC203063300EB4303B3F80064C6F3A9
:10165C000906002EBBD004EB45113346B1F83022FD
:10166C00D1F83C1200F0B1FEB1E704EB451191F852
:10167C0028122046FFF774FE35E7206804EB45136B
:10168C0093F8282030F8223013F0400F00F0B4808B
:10169C00B0F8503003EBC203023300EB4303D3F832
:1016AC000034C3F30903AA1C04EB42125360002B51
:1016BC0040F09B80226804EB451393F8281032F815
:1016CC00213023F0F0031B051B0D43F4404343F082
:1016DC00800322F821302268B2F8503004EB451018
:1016EC0090F8281003EBC103023302EB4303D3F849
:1016FC000024C2F30902AB1C5B01E1184A60C16B08
:10170C000A44C263E358002B40F08F8090F82810F5
:10171C002046FFF797FB2068B0F844309BB2ADF839
:10172C00063013F4004F00F08880BDF8065015F019
:10173C000F057FF4CEAEBDF8063013F0100F3FF45A
:10174C005CAE03889BB2ADF80430BDF8043013F4E2
:10175C00006F7FF484AEBDF8043013F4004FDAD080
:10176C00038823F070031B051B0D03802068B0F861
:10177C00503094F8282203EBC203063300EB4303EA
:10178C00D3F80034C3F30903C4F84432002B7FF4BC
:10179C0086AE00212046FFF74BFB2368B3F85020A0
:1017AC00063203EB4202D4F838123E297FF685AE9E
:1017BC00C1F34F1311F01F0F01D1013B9BB26FEA24
:1017CC00C3636FEA53439BB2C2F800342268138898
:1017DC009BB223F4804323F0700383F4405343F40F
:1017EC00004343F08003138095E704EB4511CA8D49
:1017FC00C96B00F078FC5DE7B0F8503003EBC20326
:10180C00063300EB4303D3F80034C3F30903AA1CDB
:10181C0004EB42125360002B3FF44CAF04EB451128
:10182C000A8EC96B00F05FFC44E704EB451595F894
:10183C0028102046FFF7BAFD6DE7002002B070BDFE
:10184C0010B50446006800F049FC10F4004F45D177
:10185C00206800F043FC10F4806F43D1206800F046
:10186C003DFC10F4804F08D02268B2F844309BB293
:10187C0023F480439BB2A2F84430206800F02EFC85
:10188C0010F4005F08D02268B2F844309BB223F405
:10189C0000539BB2A2F84430206800F01FFC10F4F7
:1018AC00805F30D1206800F019FC10F4006F49D132
:1018BC00206800F013FC10F4007F64D1206800F065
:1018CC000DFC10F4807F08D02268B2F844309BB233
:1018DC0023F480739BB2A2F8443010BD2046FFF76E
:1018EC0083FDB5E72268B2F844309BB223F48063E1
:1018FC009BB2A2F844302046FFF7B3FA00212046F1
:10190C00FFF7CAFCAAE72268B2F840309BB223F07A
:10191C0004039BB2A2F840302268B2F840309BB26C
:10192C0023F008039BB2A2F840302046FFF7B6FA2A
:10193C002268B2F844309BB223F480539BB2A2F8D5
:10194C004430AFE72268B2F8403043F00803A2F805
:10195C0040302268B2F844309BB223F400639BB24F
:10196C00A2F844302268B2F8403043F00403A2F8E5
:10197C004030206800F0B2FB10F4805F98D1204614
:10198C00FFF77CFA94E72268B2F844309BB223F458
:10199C0000739BB2A2F844302046FFF75CFA8DE747
:1019AC0038B54AB2002A1BDB4B0103F50A7303441A
:1019BC0001249C7001F07F051D70D20F5A7090F8B5
:1019CC002824A24218D00446012280F82824194663
:1019DC00006800F0F9FA4DB1002084F8280438BDF5
:1019EC0001F07F035B0128330344E1E704F22C414F
:1019FC00206800F076FBEFE70220F0E710B54AB262
:101A0C00002A1ADB4B0103F50A73034400249C7073
:101A1C0001F07F011970D20F5A7090F82824012A16
:101A2C0011D00446012280F828241946006800F0E1
:101A3C0002FB002084F8280410BD01F07F035B0139
:101A4C0028330344E2E70220F6E711F0800F09D0B7
:101A5C0001F07F0149012831014442B98A728B801F
:101A6C0000207047490101F50A710144F5E7012294
:101A7C008A72CB801B0C0B81F2E784B001A880E842
:101A8C000E00002004B07047B0F8403043F43F43E0
:101A9C00A0F8403000207047B0F8403023F4745365
:101AAC005B045B0CA0F840300020704700207047AE
:101ABC0084B038B505AC84E80E000123A0F84030A2
:101ACC000024A0F84040A0F84440A0F85040FFF794
:101ADC00DBFF2046BDE8384004B0704710B4CB782B
:101AEC00032B0FD8DFE803F0026D54600A7830F84E
:101AFC0022309BB223F4EC4323F0700343F40073C5
:101B0C0020F822300A7830F8223023F0F0031B053D
:101B1C001B0D134343F4004343F0800320F82230A1
:101B2C008B7A002B40F0AF804B78002B56D08A88F4
:101B3C005208B0F850300C7803EBC40300EB4303AD
:101B4C005200C3F800240A7830F8223013F0400F0A
:101B5C000BD030F8223023F0F0031B051B0D43F49F
:101B6C00004343F0C00320F822300A7830F82230CA
:101B7C009BB223F4E04323F0400383F0200343F4AF
:101B8C00004343F0800320F82230002010BC704743
:101B9C000A7830F822309BB223F4EC4323F0700324
:101BAC009BB220F82230ADE70A7830F822309BB295
:101BBC0023F4EC4323F0700343F4C06320F8223089
:101BCC00A0E70A7830F822309BB223F4EC4323F0E0
:101BDC00700343F4806320F8223093E78A8852081C
:101BEC00B0F850300C7803EBC403043300EB430320
:101BFC005200C3F80024B0F850300A7803EBC2034B
:101C0C00063300EB43030C693E2C30D9C4F34F125E
:101C1C0014F01F0F01D1013A92B26FEAC2626FEA5F
:101C2C00524292B2C3F800240A7830F8223013F4EE
:101C3C00804F0BD030F8223023F0F0031B051B0D26
:101C4C0043F4404343F0800320F822300A7830F804
:101C5C0022309BB223F4804323F0700383F440536F
:101C6C0043F4004343F0800320F822308DE7C4F3A3
:101C7C004F0214F0010F01D0013292B2920292B2D3
:101C8C00C3F80024D0E70A7830F8223023F4F87334
:101C9C001B051B0D43F4014343F0800320F8223055
:101CAC00CA885208B0F850300C7803EBC40300EB30
:101CBC0043035200C3F800240A895208B0F850308C
:101CCC000C7803EBC403043300EB43035200C3F85A
:101CDC0000244B78002B4BD10A7830F8223013F4C7
:101CEC00804F0BD030F8223023F0F0031B051B0D76
:101CFC0043F4404343F0800320F822300A7830F854
:101D0C00223013F0400F0BD030F8223023F0F003C8
:101D1C001B051B0D43F4004343F0C00320F8223095
:101D2C000A7830F8223023F0F0031B051B0D43F426
:101D3C00004343F0C00320F822300A7830F82230F8
:101D4C009BB223F4804323F0700383F4405348F296
:101D5C008004234320F822300A7830F822309BB2DA
:101D6C0023F4E04323F04003234320F822300CE714
:101D7C000A7830F8223013F4804F0BD030F8223030
:101D8C0023F0F0031B051B0D43F4404343F0800389
:101D9C0020F822300A7830F8223013F0400F0BD0A4
:101DAC0030F8223023F0F0031B051B0D43F40043E5
:101DBC0043F0C00320F822300A7830F8223023F0A8
:101DCC00F0031B051B0D43F4404343F0800320F844
:101DDC0022300B7830F8232092B222F4E04222F029
:101DEC00400248F28004224320F823200A7830F87D
:101DFC0022309BB223F4804323F07003234320F85A
:101E0C002230C2E68B7A002B44D14B780BB30A7884
:101E1C0030F8223013F0400F0BD030F8223023F082
:101E2C00F0031B051B0D43F4004343F0C00320F8E3
:101E3C0022300A7830F822309BB223F4E04323F0AE
:101E4C00400343F4004343F0800320F82230002089
:101E5C0070470A7830F8223013F4804F0BD030F8EA
:101E6C00223023F0F0031B051B0D43F4404343F0D9
:101E7C00800320F822300A7830F822309BB223F409
:101E8C00804323F0700343F4004343F0800320F8B5
:101E9C002230DCE710B44B78002B4BD10A7830F8A9
:101EAC00223013F4804F0BD030F8223023F0F003A3
:101EBC001B051B0D43F4404343F0800320F82230F4
:101ECC000A7830F8223013F0400F0BD030F8223063
:101EDC0023F0F0031B051B0D43F4004343F0C00338
:101EEC0020F822300A7830F8223023F0F0031B055A
:101EFC001B0D43F4004343F0C00320F822300B7851
:101F0C0030F8232092B222F4804222F0700248F280
:101F1C008004224320F823200A7830F822309BB228
:101F2C0023F4E04323F04003234320F82230002025
:101F3C0010BC70470A7830F8223013F4804F0BD065
:101F4C0030F8223023F0F0031B051B0D43F4404303
:101F5C0043F0800320F822300A7830F8223013F056
:101F6C00400F0BD030F8223023F0F0031B051B0D73
:101F7C0043F4004343F0C00320F822300A7830F8D1
:101F8C00223023F0F0031B051B0D43F4404343F0B8
:101F9C00800320F822300B7830F8232092B222F400
:101FAC00E04222F0400248F28004224320F8232031
:101FBC000A7830F822309BB223F4804323F070036C
:101FCC00234320F82230B2E70A7892B930F8223055
:101FDC009BB223F4804323F0400383F4805383F0BB
:101FEC00100343F4004343F0800320F82230002018
:101FFC0070474B787BB130F822309BB223F4E0432E
:10200C0023F0400383F0100343F4004343F08003B8
:10201C0020F82230EBE730F822309BB223F48043D7
:10202C0023F0700383F4805343F4004343F08003A4
:10203C0020F82230DBE74B781BB30A7830F82230DB
:10204C0013F0400F0BD030F8223023F0F0031B05B7
:10205C001B0D43F4004343F0C00320F822300A78F0
:10206C0030F822309BB223F4E04323F0400383F09A
:10207C00300343F4004343F0800320F82230002067
:10208C0070470A7830F8223013F4804F0BD030F8B8
:10209C00223023F0F0031B051B0D43F4404343F0A7
:1020AC00800320F822300A7830F822309BB223F4D7
:1020BC00804323F0700383F4405343F4004343F014
:1020CC00800320F82230DAE711B98023A0F84C30D5
:1020DC00002070470020704700207047B0F8440083
:1020EC0070470020704701335B1000EB420202F591
:1020FC00806263B110B40C78487844EA002422F86A
:10210C00044B0231013B002BF5D110BC70477047DA
:10211C00F8B58A694D78012D34D00B69934280F063
:10212C00EA80D21A8A618A7A002A40F0F480B0F8E8
:10213C0050200C7802EBC402063200EB42023E2B1C
:10214C0040F2DD80C3F34F1413F01F0F01D1013C9B
:10215C00A4B26FEAC4646FEA5444A4B2C2F8004457
:10216C000A7830F822309BB223F4804323F07003BA
:10217C0083F4405343F4004343F0800320F82230AF
:10218C000020F8BD0F69974225D2D21B8A610E46FA
:10219C0004468B7A1BB30B7830F8232012F0400FD7
:1021AC0069D0002D37D1B0F8502002EBC3030633B1
:1021BC0000EB43033E2F22D9C7F34F1217F01F0F2A
:1021CC0001D1013A92B26FEAC2626FEA524292B204
:1021DC00C3F8002428E000238B611746D7E7BBB275
:1021EC008A884969FFF77FFFB4F85030327803EBE7
:1021FC00C203023304EB4303C3F800742AE0C7F3B1
:10220C004F0217F0010F01D0013292B2920292B23A
:10221C00C3F8002408E0B0F8502002EBC3030233EB
:10222C0000EB4303C3F800743289BBB271692046DA
:10223C00FFF759FF7378002B4DD1327834F82230E8
:10224C0023F0F0031B051B0D43F4004343F0C003C4
:10225C0024F82230327834F822309BB223F4E04355
:10226C0023F0400383F0300343F4004343F0800336
:10227C0024F8223084E71DBBB0F8502002EBC303D6
:10228C00023300EB43033E2F0ED9C7F34F1217F066
:10229C001F0F01D1013A92B26FEAC2626FEA524249
:1022AC0092B2C3F8002414E0C7F34F0217F0010FE9
:1022BC0001D0013292B2920292B2C3F8002408E02B
:1022CC00B0F8502002EBC303023300EB4303C3F816
:1022DC000074F288A9E7012BBCD1327834F8223093
:1022EC0023F0F0031B051B0D43F4404343F0800324
:1022FC0024F82230AEE700238B61134613E7C3F3B7
:10230C004F0413F0010F01D00134A4B2A402A4B203
:10231C00C2F8004424E7BDB9B0F850200C7802EBA9
:10232C00C402023200EB42023E2B28D9C3F34F14F5
:10233C0013F01F0F01D1013CA4B26FEAC4646FEA21
:10234C005444A4B2C2F800444A7882BBB0F850207E
:10235C000C7802EBC402063200EB42023E2B1AD977
:10236C00C3F34F1413F01F0F01D1013CA4B26FEA59
:10237C00C4646FEA5444A4B2C2F80044F0E6C3F358
:10238C004F0413F0010F01D00134A4B2A402A4B283
:10239C00C2F80044D8E7C3F34F0413F0010F01D087
:1023AC000134A4B2A402A4B2C2F80044D8E6012AB3
:1023BC007FF4D6AEB0F850200C7802EBC402023297
:1023CC0000EB4202C2F80034CAE601335B1000EBAA
:1023DC00420202F580622BB152F8040B21F8020B79
:1023EC00013BF8E7704798B108B50346D0F81402E2
:1023FC0010B10020C3F8140209B1C3F8101218462A
:10240C00012380F8FC310270FEF74EFD002008BD60
:10241C000220704719B1C0F8141200207047022036
:10242C00704708B5FEF784FD002008BD08B5D0F84C
:10243C00143233B11B68984708B9002008BD02203C
:10244C00FCE70220FAE708B5D0F814325B6898472D
:10245C00002008BD38B5044600F50275284600F08A
:10246C000EF90123C4F8F431B4F80E32C4F8F83183
:10247C0094F8081201F01F03012B0FD05AB23AB195
:10248C00022B10D001F080012046FEF787FD03E0FF
:10249C002946204600F06DFA002038BD294620461A
:1024AC0000F08BFAF8E72946204600F0A1FAF3E792
:1024BC0010B5044629BB1346D0F8F421032A01D0E9
:1024CC00002010BDD0F80C11D0F8102191420BD87F
:1024DC00D0F814321B691BB190F8FC21032A0ED0E2
:1024EC00204600F060FBEBE7891AC0F80C118A4219
:1024FC0028BF0A4692B2194600F04DFBE0E7984718
:10250C00EEE70A46D0F814329B69002BD8D090F82D
:10251C00FC110329D4D111469847D1E710B50446D4
:10252C00002947D11346D0F8F421022A05D094F89B
:10253C000032012B3AD0002010BDC169026A9142D1
:10254C0017D88169B1FBF2F302FB13132BB98A4242
:10255C0003D8D0F8F831994218D3D4F81432DB6888
:10256C001BB194F8FC21032A1DD0204600F026FB59
:10257C00DDE78A1AC26192B2194600F0F5FA00231F
:10258C001A4619462046FEF760FDD0E70022114698
:10259C0000F0EAFA0021C4F8F8110B460A4620466E
:1025AC00FEF753FDC3E720469847DEE7002384F887
:1025BC000032C0E70A46D0F814325B69002BBAD05F
:1025CC0090F8FC110329B6D111469847B3E738B5FA
:1025DC000446402300221146FEF7BBFC4025C4F8FC
:1025EC0010512B46002280212046FEF7B2FC2562BA
:1025FC00012384F8FC31D4F818322BB1D4F81432FE
:10260C005B68217920469847002038BD0174002072
:10261C00704790F8FC3180F8FD31042380F8FC31D0
:10262C000020704790F8FD3180F8FC310020704795
:10263C0008B590F8FC31032B01D0002008BDD0F870
:10264C001432DB69002BF8D09847F6E700230278A8
:10265C001AB10133DBB20130F9E7184670474B88E9
:10266C00012B00D0704710B50446C0F80432D0F8E6
:10267C0014329B689847204600F095FA10BD0B78F1
:10268C0003704B7843708B78CA7803EB022343803A
:10269C000B794A7903EB022383808B79CA7903EB9C
:1026AC000223C380704710B504468021FEF776FCE8
:1026BC0000212046FEF772FC10BD30B583B00446F5
:1026CC000D464A88130A013B062B00F28180DFE895
:1026DC0003F00413277F7F637000D0F810321B685F
:1026EC000DF10601007C9847BDF8062012B1EB886D
:1026FC00002B71D103B030BD037C43B9D0F8143238
:10270C009B6A0DF10600984702234370ECE7D0F862
:10271C001432DB6A0DF10600984702234370E3E79D
:10272C00D2B2052A34D8DFE802F0030B131B232B9B
:10273C00D0F810325B680DF10601007C9847D3E7A6
:10274C00D0F810329B680DF10601007C9847CBE75E
:10275C00D0F81032DB680DF10601007C9847C3E716
:10276C00D0F810321B690DF10601007C9847BBE7CD
:10277C00D0F810325B690DF10601007C9847B3E785
:10278C00D0F810329B690DF10601007C9847ABE73D
:10279C002946FFF788FFADE7037C33B9D0F8143234
:1027AC005B6B0DF1060098479EE72946FFF77BFF10
:1027BC00A0E7037C43B9D0F814321B6B0DF1060073
:1027CC009847072343708FE72946FFF76CFF91E783
:1027DC002946FFF768FF8DE79A4228BF1A46ADF8E5
:1027EC0006200146204600F0B2F983E738B50446CE
:1027FC008B88E3B9CB88D3B98D7805F07F0590F839
:10280C00FC31032B0CD080F8FE512946FEF7FBFB64
:10281C00204600F0C8F935B1022384F8FC3109E0F8
:10282C00FFF741FF06E0012384F8FC3102E020466B
:10283C00FFF739FF38BD000038B504460D468978DE
:10284C00254B1970012909D890F8FC31022B09D0BD
:10285C00032B1CD02946FFF726FF02E02946FFF781
:10286C0022FF38BD81B14160032380F8FC31FFF7B2
:10287C00DDFD022803D0204600F095F9F1E729464A
:10288C002046FFF710FFECE700F08DF9E9E789B17E
:10289C00436899421DD0D9B2FFF7D5FD0E4B19787C
:1028AC0061602046FFF7C2FD02280DD0204600F0E3
:1028BC007AF9D6E7022380F8FC314160FFF7C3FDBB
:1028CC00204600F070F9CCE729462046FFF7EBFED6
:1028DC00C7E700F068F9C4E79C03002008B5CB8873
:1028EC00012B08D190F8FC31022B07D0032B0DD013
:1028FC00FFF7D9FE01E0FFF7D6FE08BD0146002325
:10290C0041F8083F012200F022F9F6E70122011DEF
:10291C0000F01DF9F1E708B590F8FC31023B012BF2
:10292C000CD80123C360D0F804320BB10323C3606D
:10293C00022200F10C0100F00AF908BDFFF7B3FE0A
:10294C00FBE710B5044690F8FC31023B012B0DD887
:10295C004B88012B0CD10023C0F80432D0F8143270
:10296C009B689847204600F01EF901E0FFF79BFE9C
:10297C0010BD08B54B78092B1CD8DFE803F01218F2
:10298C001B151B09051B0F0CFFF797FE002008BD3C
:10299C00FFF72CFFFAE7FFF74FFFF7E7FFF79EFF74
:1029AC00F4E7FFF7B8FFF1E7FFF759FEEEE7FFF7A3
:1029BC00C8FFEBE7FFF777FEE8E738B504460D46AE
:1029CC0090F8FC31032B0FD10B79012B09D8D0F8DF
:1029DC0014329B689847EB8843B9204600F0E3F823
:1029EC0004E0FFF760FE01E0FFF75DFE002038BD5C
:1029FC0038B505460C468A880B7803F06003202B0B
:102A0C0013D0D1B26378012B30D058B2002851D0FA
:102A1C00032B0ED195F8FC31022B0CD0032B12D0CA
:102A2C0021462846FFF73FFE03E0D0F814329B689E
:102A3C009847002038BD0029FBD08029F9D02846C2
:102A4C00FEF7ACFAF5E7638813B909B1802909D10F
:102A5C00D5F814329B68214628469847284600F042
:102A6C00A2F8E6E72846FEF799FAF1E790F8FC3170
:102A7C00022B05D0032B0AD02146FFF714FED8E712
:102A8C000029D6D08029D4D0FEF788FAD1E7638804
:102A9C00002BCED111F07F0F03D1284600F083F824
:102AAC00C7E7FEF78CFAD5F814329B682146284606
:102ABC009847F2E795F8FC31022B06D0032B0BD08C
:102ACC0021462846FFF7EFFDB3E711F07F0FB0D09A
:102ADC002846FEF763FAACE712F0800F11D101F033
:102AEC007F04103405EB041404342846FEF778FAFE
:102AFC0070B10123236002222146284600F027F8FA
:102B0C0097E701F07F04013405EB04140434ECE77F
:102B1C0000232360EFE7C8B170B50D461646044696
:102B2C00FFF794FD0130400080B230802870032301
:102B3C006B700223217841B101345A1CD2B2E95492
:102B4C000233DBB20021A954F4E770BD704710B515
:102B5C0013460222C0F8F4218361C3610A460021A6
:102B6C00FEF762FA002010BD08B513460A46002194
:102B7C00FEF75AFA002008BD10B513460322C0F820
:102B8C00F421C0F80831C0F80C310A460021FEF7D8
:102B9C005CFA002010BD08B513460A460021FEF76A
:102BAC0054FA002008BD08B50423C0F8F431002302
:102BBC001A461946FEF738FA002008BD08B5052359
:102BCC00C0F8F43100231A461946FEF73EFA0020ED
:102BDC0008BDD0F818321BB10020C3F8140270479E
:102BEC000220704710B5D0F81842D0F81C325BB1F7
:102BFC0094F80002FF2807D09B6894F80122214624
:102C0C009847FF2384F80032002010BD4323038033
:102C1C000048704788000020432303800048704719
:102C2C00CC00002043230380004870471C01002087
:102C3C000A230380004870471001002038B5044671
:102C4C00D0F81852FEF712FAC5F80C02D4F8183264
:102C5C004BB1D4F81C32DB6805F50371D5F80402CE
:102C6C009847002038BD0220FCE7000070B50546EF
:102C7C000C46D0F818620B7813F0600224D0202A8E
:102C8C0025D1CA88CAB113F0800F0BD0D0F81C32F2
:102C9C009B68314660789847E28831462846FFF7B2
:102CAC0056FF14E04B7886F80032CB8886F8013258
:102CBC00CA883146FFF760FF09E0D0F81C329B68E8
:102CCC0000224878984702E04B780A2B01D000206C
:102CDC0070BD01220149FFF73AFFF8E79D03002080
:102CEC0010B504468121FEF748F901212046FEF774
:102CFC0044F982212046FEF740F9D4F8183253B13A
:102D0C00D4F81C325B689847D4F81802FEF7B8F96F
:102D1C000023C4F81832002010BD38B50446037CDB
:102D2C007BBB4FF4007302228121FEF712F94FF4A2
:102D3C000073022201212046FEF70BF9082303221F
:102D4C0082212046FEF705F94FF40770FEF794F93F
:102D5C000546C4F8180248B3D4F81C321B689847CF
:102D6C000023C5F81432C5F81832237CABB94FF4E4
:102D7C000073D5F8042201212046FEF766F90020E5
:102D8C0038BD402302228121FEF7E3F840230222C2
:102D9C0001212046FEF7DDF8D0E74023D5F80422C8
:102DAC0001212046FEF751F90020E9E70120E7E771
:102DBC0019B1C0F81C120020704702207047D0F8DF
:102DCC001832C3F80812C3F8102200207047D0F84C
:102DDC001832C3F8041200207047D0F8182292B1B0
:102DEC0008B5037C43B94FF40073D2F804220121D7
:102DFC00FEF72BF9002008BD4023D2F80422012154
:102E0C00FEF723F9F6E7022070470000002103E0EB
:102E1C000B4B5B58435004310A480B4B42189A42F7
:102E2C00F6D30A4A02E0002342F8043B084B9A42CC
:102E3C00F9D3FDF793FF00F00FF8FDF7DAF97047BF
:102E4C00482F0008000000206001002060010020D5
:102E5C00F8130020FEE7000070B500260C4D0D4C59
:102E6C00641BA410A64209D100F01AF800260A4DE2
:102E7C000A4C641BA410A64205D170BD55F8043B46
:102E8C0098470136EEE755F8043B98470136F2E7D0
:102E9C00402F0008402F0008402F0008442F000846
:102EAC00F8B500BFF8BC08BC9E467047F8B500BF2B
:082EBC00F8BC08BC9E467047FB
:102EC40002030405060708090A0B0C0D0E0F101067
:102ED40001020000000000000000000001020304E1
:102EE4000607080943444320436F6E666967000080
:102EF40043444320496E7465726661636500000053
:102F040053544D6963726F656C656374726F6E6957
:102F14006373000053544D333220566972747561E3
:102F24006C20436F6D506F7274000000303030308D
:0C2F3400303030303030314100000000FF
:042F4000750100080F
:042F44004D01000833
:102F4800010000001000000000A24A0491100008CF
:102F58009D100008CD100008A9100008E91000080D
:102F68000D11000831110008120100020202004090
:102F7800830440570002010203010000040309040E
:102F88007911000855110008591100085D11000851
:102F9800272D0008ED2C0008792C000800000000FF
:102FA800F12B0008DF2B0008492C00080000000066
:102FB8000000000000000000252C0008192C000863
:102FC800312C00083D2C000809024300020100C012
:102FD8003209040000010202010005240010010565
:102FE80024010001042402020524060001070582C9
:102FF8000308001009040100020A00000007050187
:103008000240000007058102400000000902430059
:10301800020100C032090400000102020100052477
:103028000010010524010001042402020524060001
:10303800010705820308001009040100020A0000C4
:1030480000070501020002000705810200020000D6
:103058000A060002000000400100000009074300C2
:10306800020104C032090400000102020100052423
:1030780000100105240100010424020205240600B1
:1030880001070582030800FF09040100020A000085
:10309800000705010240000007058102400000000A
:0400000508002E19A8
:00000001FF
